:100000000AC1000036C1000034C1000032C1000046
:1000100030C100002EC100002CC100002AC1000028
:1000200028C1000026C1000024C1000022C1000038
:1000300020C100001EC100001CC100001AC1000048
:1000400018C1000016C1000014C1000012C1000058
:1000500010C100000EC100000CC100007AC20000F7
:1000600008C1000006C1000004C1000002C1000078
:1000700000C10000FEC00000FCC00000FAC000008B
:10008000F8C00000F6C00000F4C00000F2C000009C
:10009000F0C00000EEC00000ECC00000EAC00000AC
:1000A000E8C00000E6C00000E4C00000E2C00000BC
:1000B000E0C00000DEC00000DCC00000DAC00000CC
:1000C000D8C00000D6C00000D4C00000D2C00000DC
:1000D000D0C00000CEC00000CCC00000CAC00000EC
:1000E000C8C0000087018A0179017D018101C10139
:1000F0008E01920198019C01A001A601AA01AE0106
:10010000C101B401B801BC0100000A0B02090C0DC9
:100110000E080703040100000000000000000000BA
:1001200000000000000000000000000000000000CF
:10013000000000001211100000000000000000008C
:1001400000000000000000000000000000000001AE
:100150000203040500002200250028002B002E00C9
:100160003100340002010000050108010B0100000C
:100170002100240027002A002D0030003300010157
:100180000000040107010A01050505050705080827
:100190000808020202020A0A080804040404010111
:1001A0000101010101010303030303030303040726
:1001B00007070C0C0C0C0C0C0C0C020202020606BD
:1001C0000606060606060B0B0B0B0B0B0B0B0102B0
:1001D0001020200808102040102040800201020159
:1001E0000804020101020408102040808040201011
:1001F000080402018004020180402010080402016A
:1002000008040201010204081020408001020408D1
:1002100010204080E10411241FBECFEFD1E2DEBFE9
:10022000CDBF00E00CBF12E0A0E0B2E0E0EBFAE0EE
:1002300000E00BBF02C007900D92A430B107D9F7C0
:1002400022E0A4E0B2E001C01D92A632B207E1F7BD
:1002500011E0CBE0D1E000E005C021970109802F3B
:10026000FE01C9D3CA30D10780E00807B1F7BBD17E
:100270001DC4C6CE90E0FC01E253FE4F2491FC0168
:10028000E857FE4F8491882399F090E0880F991FDA
:10029000FC01E259FE4FA591B491FC01EC5AFE4FCE
:1002A000859194918FB7F894EC91E22BEC938FBFEA
:1002B0000895362F90E0FC01E85FFE4F4491FC0169
:1002C000E253FE4F2491FC01E857FE4F949199238D
:1002D00009F46AC0442309F454C050E0FA0131978C
:1002E000E231F10508F04DC08827EE58FF4F8F4FDF
:1002F00082C3809180008F7707C0809180008F7DBE
:1003000003C080918000877F809380003AC084B5CD
:100310008F7702C084B58F7D84BD33C08091B000DB
:100320008F7703C08091B0008F7D8093B00029C08B
:10033000809190008F7707C0809190008F7D03C0DF
:1003400080919000877F809390001BC08091A000D7
:100350008F7707C08091A0008F7D03C08091A0009F
:10036000877F8093A0000DC0809120018F7707C008
:10037000809120018F7D03C080912001877F809331
:100380002001E92FF0E0EE0FFF1FEC5AFE4FA59180
:10039000B4918FB7F894EC91311103C020952E23BE
:1003A00001C02E2B2C938FBF089520910E02309107
:1003B0000F0240911002509111022417350719F0D5
:1003C000682F822F76CF08958230910538F0880FFC
:1003D000991F880F991F05970197F1F708953FB767
:1003E000F8948091090290910A02A0910B02B091B9
:1003F0000C0226B5A89B05C02F3F19F00196A11D40
:10040000B11D3FBFBA2FA92F982F8827820F911DAA
:10041000A11DB11DBC01CD0142E0660F771F881FF1
:10042000991F4A95D1F708958F929F92AF92BF92EC
:10043000CF92DF92EF92FF92D2DF4B015C0185E019
:10044000C82ED12CE12CF12CCADFDC01CB0188199C
:100450009909AA09BB09883E9340A105B10558F046
:1004600021E0C21AD108E108F10888EE880E83E085
:10047000981EA11CB11CC114D104E104F10421F7A0
:10048000FF90EF90DF90CF90BF90AF909F908F90B4
:1004900008958EBD00000DB407FEFDCF8EB5089502
:1004A000CF93DF939CB59F7D9CBD9CB5937F9CBDF6
:1004B0009CB59C7F9CBD9DB591609DBDCEE0D2E07A
:1004C000682F8A81F6DE8C899D89DF91CF917CCF60
:1004D00081E0E6CF1F93CF93DF931F92CDB7DEB7B6
:1004E000182F80E0DDDF812F8F71D3DF8FEFD1DF19
:1004F0008983EEDF89810F90DF91CF911F9108955D
:100500001F93CF93DF931F92CDB7DEB7182F80E0F4
:100510006983C6DF812F8F718062BBDF182F6981ED
:10052000862FB7DFD5DF812F0F90DF91CF911F91FD
:100530000895CF93DF931F92CDB7DEB780E0B0DF91
:1005400081EEA7DF8983C4DF89810F90DF91CF918E
:1005500008951F920F920FB60F9211242F933F937D
:100560008F939F93AF93BF93809105029091060262
:10057000A0910702B09108023091040223E0230FFA
:100580002D3720F40196A11DB11D05C026E8230FCB
:100590000296A11DB11D2093040280930502909341
:1005A0000602A0930702B09308028091090290917D
:1005B0000A02A0910B02B0910C020196A11DB11D7F
:1005C0008093090290930A02A0930B02B0930C024D
:1005D000BF91AF919F918F913F912F910F900FBE3F
:1005E0000F901F901895CF93DF93CDB7DEB72B9761
:1005F0000FB6F894DEBF0FBECDBF789484B582608D
:1006000084BD84B5816084BD85B5826085BD85B5B6
:10061000816085BD80916E00816080936E00109234
:1006200081008091810082608093810080918100AF
:100630008160809381008091800081608093800040
:100640008091B10084608093B1008091B00081609E
:100650008093B0008091910082608093910080919E
:1006600091008160809391008091900081608093DF
:1006700090008091A10082608093A1008091A100F0
:1006800081608093A1008091A00081608093A00090
:1006900080912101826080932101809121018160FC
:1006A00080932101809120018160809320018091BD
:1006B0007A00846080937A0080917A0082608093CF
:1006C0007A0080917A00816080937A0080917A002C
:1006D000806880937A001092C10080910E02909100
:1006E0000F0220911002309111028217930709F036
:1006F000C1DD809110029091110220910E02309183
:100700000F022817390709F0B5DD1FB7F89480915B
:100710000D02811120C0EDEBF1E08491E3E0F2E005
:100720009491E82FF0E0EE0FFF1FE259FE4FA591E4
:10073000B491EC91E92319F461E085E3BADD85E336
:1007400099DD8CB580618CBD8CB580648CBD84E3F3
:1007500091DD83E38FDD80910D028F5F80930D0229
:100760001FBF80E022DE81E09BDE5EDE6CE080E089
:10077000C7DE6FE584E0C4DE86E0ACDE877D182F3F
:1007800010628BE990E0A0E0B0E080931E029093AD
:100790001F02A0932002B0932102612F86E0B0DEF9
:1007A00086E098DE811709F408C186E093DE86E0D2
:1007B00091DE45E550E060E070E040931E0250930A
:1007C0001F026093200270932102682F677D86E0EC
:1007D00097DE86E07FDE80E063DE80E55ADE83E739
:1007E00058DE76DE60E08DE18BDE60E08CE188DE55
:1007F0001092160260E787E083DE6CE485E080DE1D
:1008000080E04EDE82EE45DE63DE93DE80E062DE77
:1008100081FD05C0682F626080E072DE05DE80E049
:1008200059DE682F6E7F80E06BDE8AE089831A8252
:100830001B821C821D821E821F821886D0901C0281
:1008400080E02EDE8AE225DE8E010F5F1F4F7801E9
:10085000C02ED00EDE1429F0F70181917F0119DE40
:10086000F9CF36DEF0901C0280E01ADE80E311DE64
:10087000FC0CF01629F0F80181918F010ADEF9CF06
:1008800027DE6091150281E13BDE86E023DE887F72
:10089000682F616086E034DE8EE4E82E81E0F82E79
:1008A000CC24C394D12C20E4922E44244A9433E0E7
:1008B000532E612C712C40E0A42E40E0B42EB4DD08
:1008C00080E073DD80911E0290911F027DDD8DE13D
:1008D00001DE81FF06C080911E0290911F0274DD2F
:1008E00028DE80E0F7DD682F6E7F80E009DE82E0A1
:1008F000F1DDF7019491960101C0220F9A95EAF774
:10090000682F622B82E0FCDD80917B00877F8093E3
:100910007B0090927C0080917A00806480937A00C2
:1009200080917A0086FDFCCFA091780080917900BB
:10093000B0E0B82B24EB30E066D0A301920169D07F
:100940003A87298710911502012F133008F002E031
:1009500080911602811102C0101B01C010E080E0DE
:100960009FDD80EA96DDCE0109961C01015028F03A
:10097000F10181911F018DDDF9CF112321F080E07C
:1009800088DD1150FACFA4DD81E00FDD80E088DD45
:100990008FEF7FDD8B879CDD8B858073B9F380E0E3
:1009A00004DD60E787E0ACDD84FDC3DDA114B104A4
:1009B00009F485CF0E94000082CF81E08093140269
:1009C000F4CEEEE0F2E087E090E09183808388E06F
:1009D00090E093838283168280E28783108685E08D
:1009E000868785E090E0A0E0B0E0848B958BA68BB5
:1009F000B78B11860895EE0FFF1F881F8BBF0790DE
:100A0000F691E02D199443D0B7FF0895821B930B04
:100A10000895052E97FB16F400940FD057FD05D0CE
:100A200014D007FC02D046F408C05095409530958C
:100A300021953F4F4F4F5F4F08959095809570954A
:100A400061957F4F8F4F9F4F0895A1E21A2EAA1BE9
:100A5000BB1BFD010DC0AA1FBB1FEE1FFF1FA2176E
:100A6000B307E407F50720F0A21BB30BE40BF50B6B
:100A7000661F771F881F991F1A9469F760957095F4
:100A8000809590959B01AC01BD01CF010895A29F77
:100A9000B001B39FC001A39F700D811D1124911D52
:100AA000B29F700D811D1124911D0895F894FFCF00
:040AB0000100000041
:00000001FF
