:100000000C9466000C948E000C948E000C948E0060
:100010000C948E000C948E000C948E000C948E0028
:100020000C948E000C948E000C948E000C944E0256
:100030000C948E000C948E000C948E000C948E0008
:100040000C9404020C948E000C948E000C948E0080
:100050000C948E000C948E000C948E000C948E00E8
:100060000C948E000C948E00000000080002010029
:100070000003040700000000000000001112131428
:1000800015160A0B0C0D0E0F0001020304050000EB
:100090000000250028002B0000000000240027009D
:1000A0002A000404040404040404020202020202FA
:1000B000030303030303010204081020408001022C
:1000C00004081020010204081020C40511241FBEDA
:1000D000CFEFD8E0DEBFCDBF11E0A0E0B1E0E6EFAA
:1000E000FCE002C005900D92A430B107D9F721E0E1
:1000F000A4E0B1E001C01D92AF34B207E1F710E017
:10010000C6E6D0E004C02197FE010E941006C53665
:10011000D107C9F70E940F030C9479060C940000D4
:1001200090E0FC01EA54FF4F2491FC01EE55FF4F93
:100130008491882399F090E0880F991FFC01E8567C
:10014000FF4FA591B491FC01E257FF4F8591949127
:100150008FB7F894EC91E22BEC938FBF089590E069
:10016000FC01E859FF4F3491FC01EA54FF4F249100
:10017000FC01EE55FF4FE491EE2309F43BC033231D
:1001800039F1333091F038F43130A9F0323001F5E3
:1001900084B58F7D12C0373091F03830A1F0343003
:1001A000B9F4809180008F7D03C0809180008F77AB
:1001B000809380000DC084B58F7784BD09C0809185
:1001C000B0008F7703C08091B0008F7D8093B00026
:1001D000F0E0EE0FFF1FE257FF4FA591B4918FB7EC
:1001E000F894EC91611103C020952E2301C02E2BB1
:1001F0002C938FBF08953FB7F89480910B01909195
:100200000C01A0910D01B0910E0126B5A89B05C06F
:100210002F3F19F00196A11DB11D3FBFBA2FA92F85
:10022000982F8827820F911DA11DB11DBC01CD0102
:1002300042E0660F771F881F991F4A95D1F70895EE
:100240008F929F92AF92BF92CF92DF92EF92FF92E6
:100250000E94FB004B015C0185E0C82ED12CE12CF3
:10026000F12C0E94FB00DC01CB0188199909AA0935
:10027000BB09883E9340A105B10558F021E0C21AA0
:10028000D108E108F10888EE880E83E0981EA11CD1
:10029000B11CC114D104E104F10419F7FF90EF90EF
:1002A000DF90CF90BF90AF909F908F9008958EBDBC
:1002B00000000DB407FEFDCF8EB508959CB59F7D5F
:1002C0009CBD9CB5937F9CBD9CB59C7F9CBD9DB502
:1002D00091609DBD682F809139010E94AF0080918F
:1002E0004B0190914C018230910538F0880F991F95
:1002F000880F991F05970197F1F7089580E00C94F6
:100300005E011F93CF93DF931F92CDB7DEB7898332
:100310000E947E0189818F710E9457018FEF0E9498
:100320005701182F81E00E945E01812F0F90DF910D
:10033000CF911F9108951F93CF93DF9300D0CDB736
:10034000DEB76A8389830E947E0189818F71806212
:100350000E945701182F6A81862F0E94570181E061
:100360000E945E01812F0F900F90DF91CF911F911E
:10037000089580E00E94810181FD07C0682F6260BE
:1003800080E00E949B010C9420010895CF930E946D
:100390007E0181EE0E945701C82F81E00E945E011C
:1003A0008C2FCF910895EF92FF920F931F93CF93CD
:1003B000DF9300D01F92CDB7DEB7162F4A837B8321
:1003C00089830E947E0189818F7180620E9457011A
:1003D000082FE12E7B81F72E4A81140F1E1531F074
:1003E000F70181917F010E945701F8CF81E00E94BF
:1003F0005E01802F0F900F900F90DF91CF911F9192
:100400000F91FF90EF9008951F920F920FB60F92E9
:1004100011242F933F938F939F93AF93BF9380911A
:10042000070190910801A0910901B0910A01309152
:10043000060123E0230F2D3720F40196A11DB11DE5
:1004400005C026E8230F0296A11DB11D20930601C9
:100450008093070190930801A0930901B0930A01CA
:1004600080910B0190910C01A0910D01B0910E01B2
:100470000196A11DB11D80930B0190930C01A093D7
:100480000D01B0930E01BF91AF919F918F913F915C
:100490002F910F900FBE0F901F9018951F920F92E3
:1004A0000FB60F9211242F933F934F935F936F9347
:1004B0007F938F939F93AF93BF93EF93FF9380911D
:1004C000050187FF05C010928500109284001BC0B3
:1004D00020910501022E000C330B8091040190E065
:1004E0002817390784F480910501082E000C990B18
:1004F000FC01EE0FFF1F8E0F9F1FFC01E05FFE4F00
:10050000808186FD15C0809105018F5F8093050174
:1005100020910501022E000C330B8091040190E024
:1005200028173907C4F4809105018C3064F113C099
:1005300080910501082E000C990BFC01EE0FFF1FA6
:100540008E0F9F1FFC01E05FFE4F808160E08F7384
:100550000E94AF00D8CF80918400909185000496CE
:1005600080349C4918F480E49CE905C080918400A3
:1005700090918500049690938900809388008FEF76
:10058000809305013BC020918400309185008091CB
:100590000501082E000C990BFC01EE0FFF1F8E0FBA
:1005A0009F1FFC01E05FFE4F81819281820F931FAC
:1005B000909389008093880080910501082E000C9B
:1005C000990BFC01EE0FFF1F8E0F9F1FFC01E05FD8
:1005D000FE4F808186FF12C080910501082E000C1D
:1005E000990BFC01EE0FFF1F8E0F9F1FFC01E05FB8
:1005F000FE4F808161E08F730E94AF00FF91EF9109
:10060000BF91AF919F918F917F916F915F914F912A
:100610003F912F910F900FBE0F901F901895CF9381
:10062000DF93CDB7DEB72A970FB6F894DEBF0FBEC3
:10063000CDBF789484B5826084BD84B5816084BD6B
:1006400085B5826085BD85B5816085BD80916E0070
:10065000816080936E0010928100809181008260A1
:1006600080938100809181008160809381008091DE
:1006700080008160809380008091B10084608093CD
:10068000B1008091B00081608093B00080917A00C9
:10069000846080937A0080917A00826080937A00EF
:1006A00080917A00816080937A0080917A008068DE
:1006B00080937A001092C100809134018C3008F050
:1006C00050C085E00E94900080913401E82FF0E056
:1006D0009F01220F331FE20FF31FE05FFE4F908157
:1006E000907C9560908310923501109236016CE0F9
:1006F0000E9404062CE0829FB001112440E050E0EB
:100700009A01260F371FF901EE0FFF1F2E0F3F1F13
:10071000F901E05FFE4F908196FD16C04F5F5F4F7D
:100720004C30510569F781110FC01092800082E0B2
:10073000809381001092850010928400B19A80917C
:100740006F00826080936F00E0913401F0E0CF0190
:10075000880F991FE80FF91FE05FFE4F80818064CA
:100760008083809137019091380120913901309137
:100770003A018217930711F00E949000809139018D
:1007800090913A01209137013091380128173907AB
:1007900011F00E9490001FB7F89480910F01811111
:1007A00024C0ECEAF0E08491E0ECF0E09491E82FD2
:1007B000F0E0EE0FFF1FE856FF4FA591B491EC91CA
:1007C000E92321F461E08AE00E94AF008AE00E9400
:1007D00090008CB580618CBD8CB580648CBD8DE043
:1007E0000E9490008BE00E94900080910F018F5F2B
:1007F00080930F011FBF80913701909138012091A4
:10080000390130913A018217930719F060E00E9494
:10081000AF0081E00E945E010E9420016CE080E058
:100820000E949B016FE584E00E949B0186E00E948C
:100830008101877D182F10628BE990E0A0E0B0E085
:100840008093470190934801A0934901B0934A01D6
:10085000612F86E00E949B0186E00E948101811742
:1008600009F4F1C086E00E94810186E00E948101C6
:1008700045E550E060E070E0409347015093480147
:100880006093490170934A01682F677D86E00E945A
:100890009B0186E00E9481010E947E0180E50E940A
:1008A000570183E70E94570181E00E945E0160E0EA
:1008B0008DE10E949B0160E08CE10E949B011092FF
:1008C0003F0160E787E00E949B016CE485E00E94A5
:1008D0009B010E947E0182EE0E94570181E00E94EE
:1008E0005E010E94C6010E94B90180E00E94810160
:1008F000682F6E7F80E00E949B018AE089831A82C4
:100900001B821C821D821E821F821886E3E8F0E093
:10091000849140914501BE016F5F7F4F0E94D301DA
:10092000EDE7F0E0849160913E010E949B0182E03E
:100930000E948101E9E8F0E0E49161E070E001C02B
:10094000660FEA95EAF7682B82E00E949B0186E039
:100950000E948101887F682F616086E00E949B0170
:1009600008E810E048E5E42E42E0F42E54EB452E72
:10097000512C612C712CCC24C394D12C0E942001C9
:100980000E94B90180E00E948101682F616080E0CF
:100990000E949B0160E787E00E949B0180913701E4
:1009A000909138012091390130913A0182179307D3
:1009B00019F061E00E94AF0080914001882341F06E
:1009C0004091450160E471E08AE00E94D30110C0CB
:1009D00082E00E948101E8E8F0E09491B60101C054
:1009E000660F9A95EAF76095682382E00E949B0162
:1009F0008DE10E94810181FD0E94C60187E10E9474
:100A0000810180FF1AC020E030E0232B09F4B6CF2B
:100A10000E940000B0CF81E00E945E0160E787E0A5
:100A20000E949B01E985FA85E03222E0F207DCF1C1
:100A3000A0913401AC3008F473C087E10E948101B9
:100A400080FF05C0E0CF81E080933D010BCF1A8687
:100A5000198680913E01823008F494C022E0222E53
:100A600090913F01911103C0382E321801C0312CF2
:100A70000E947E0181E60E945701CE0109965C0129
:100A80002A94FFEF2F1639F08FEF0E945701F501DE
:100A900081935F01F5CF332009F4BDCF8FEF0E9422
:100AA00057013A94F8CFF7FD06C0E53BF1052CF06D
:100AB000E4EBF0E002C0E0E0F0E080913501D80125
:100AC000A81BB10987FDB395AA0FBB1FAA0FBB1FB7
:100AD0004D01BB0FAA08BB0880913601B701681B06
:100AE000710987FD7395660F771F660F771FCB011E
:100AF000770FAA0BBB0B9C01AD01281939094A09D4
:100B00005B09DF010E944006A30192010E941606C4
:100B1000DA01C901880D991DAA1DBB1DFC0188CFF2
:100B2000809135019801281B310987FD3395C90152
:100B3000880F991F880F991FE817F90784F0809193
:100B400036019701281B310987FD3395220F331F8A
:100B5000220F331FCF012E173F070CF4C901029754
:100B6000880F991F4FB7F8942A2F30E0F901EE0F44
:100B7000FF1F2E0F3F1FF901E05FFE4F928381831D
:100B80004FBF5BCF282E6CCF87E090E09093380169
:100B90008093370188E090E090933A018093390187
:100BA00010923D0180E280933E0110923F0185E06A
:100BB0008093450185E090E0A0E0B0E080934B0198
:100BC00090934C01A0934D01B0934E0110924001BF
:100BD000809104018C30A0F491E0980F909304016F
:100BE0008093340190E0FC01EE0FFF1F8E0F9F1FDA
:100BF000FC01E05FFE4F88EB9BE0928381830895C8
:100C00008FEF809334010895991B79E004C0991FF8
:100C1000961708F0961B881F7A95C9F78095089556
:100C2000EE0FFF1F0590F491E02D0994052E97FB20
:100C30001EF400940E942D0657FD07D00E9448061E
:100C400007FC03D04EF40C942D065095409530953A
:100C500021953F4F4F4F5F4F089590958095709528
:100C600061957F4F8F4F9F4F08950E946A06A59F01
:100C7000900DB49F900DA49F800D911D1124089597
:100C8000B7FF0C9435060E943506821B930B08951E
:100C9000A1E21A2EAA1BBB1BFD010DC0AA1FBB1F80
:100CA000EE1FFF1FA217B307E407F50720F0A21BF2
:100CB000B30BE40BF50B661F771F881F991F1A945F
:100CC00069F760957095809590959B01AC01BD0189
:100CD000CF010895A29FB001B39FC001A39F700DE3
:100CE000811D1124911DB29F700D811D1124911D34
:060CF0000895F894FFCF07
:040CF60001000000F9
:00000001FF
